:100A920054657374696E67205245532020202020CC
:100AA20000202020202020202020202020206F68CD
:100AB2006D0054657374696E672043415020202095
:100AC2002020002020202020202020202020202044
:100AD2007020460054657374696E6720494E445510
:100AE20043544F520020202020202020202020206C
:100AF20020207520480054657374696E6720465241
:100B020045512020202000202020202020202020AD
:100B12002020202020487A00303020303030203011
:030B220030300070
:100C2400041D00000000042A00000000042200004B
:100C34000000140800000000000000000000000094
:100C44000000000000000000042600000000012154
:040C540000011C007F
:100DBF00C292C290D2917580FFD2922087F2C292D6
:010DCF002201
:0F0DD000120DBFC290C291758001D292C29222C1
:0E0DDF00120DBFC290C2918F80D292C292229A
:0E0DED00120DBFD290C2918F80D292C292227C
:07000300EF2480FF020DDF76
:060D36008B3E8A3F89405C
:100D3C00E4FEAB3EAA3FA9408E827583001204EA02
:090D4C00FF6006120DED0E80E9B6
:010D5500227B
:100DAD007F06120DDF7F0C120DDF7F38120DDF0273
:020DBD000DD057
:100D0D00E5A0540FFF640F601FEF24F9601724FC5A
:100D1D00600F24FE600714700F75210322752102E8
:080D2D002275210122E4F521E9
:010D3500229B
:100D5600E4FDFCC3ED9FEC9E5015E4FBFA0BBB00D3
:0F0D6600010AEB64784A70F50DBD00010C80E4C2
:010D7500225B
:080604008F318E308D2F8C2EFA
:10060C0078337C007D007BFF7A0B791A7E007F0BA0
:10061C001204C47FFF7EE07DF57C05AB31AA30A9C6
:10062C002FA82ED31205F3400C7531FF7530E075F1
:10063C002FF5752E057B807A9679987800AF31AEC0
:10064C0030AD2FAC2E120553EF2430F533AF31AE55
:10065C0030AD2FAC2E7B807A9679987800120553AA
:10066C00AC00AD01AE02AF038F318E308D2F8C2ECE
:10067C007B407A42790F7800120553EF2430F53421
:10068C00AF31AE30AD2FAC2E7B407A42790F780073
:10069C00120553AC00AD01AE02AF038F318E308D1D
:1006AC002F8C2E7BA07A8679017800120553EF24CB
:1006BC0030F536AF31AE30AD2FAC2E7BA07A8679CB
:1006CC00017800120553AC00AD01AE02AF038F31BF
:1006DC008E308D2F8C2EE47B107A27F9F81205536F
:1006EC00EF2430F537AF31AE30AD2FAC2EE47B10AC
:1006FC007A27F9F8120553AC00AD01AE02AF038FA7
:10070C00318E308D2F8C2EE47BE87A03F9F81205AC
:10071C0053EF2430F538AF31AE30AD2FAC2EE47B37
:10072C00E87A03F9F8120553AC00AD01AE02AF0341
:10073C008F318E308D2F8C2EE47B64FAF9F81205F4
:10074C0053EF2430F53AAF31AE30AD2FAC2EE47B05
:10075C0064FAF9F8120553AC00AD01AE02AF038F89
:10076C00318E308D2F8C2EE47B0AFAF9F81205535A
:10077C00EF2430F53BAF31AE30AD2FAC2EE47B0A1D
:10078C00FAF9F8120553AC00AD01AE02AF038F318C
:10079C008E308D2F8C2EEF2430F53CAF32120003AF
:0907AC007B007A007933020D365E
:100959008F318E308D2F8C2EC3E531950BFFE5300D
:10096900950AFE12000EAC06AD07EC12033AE4FB41
:10097900FA7980783F120025C004C005C006C00777
:10098900AF0BAE0AAD09AC08E4120335E4FBFA7902
:1009990080783F120025A804A905AA06AB07D0074D
:1009A900D006D005D00412021F7BCD7ACC794C78C1
:1009B9003E1202BC504785310B85300A852F0985C7
:1009C9002E0885310F85300E852F0D852E0C85312A
:1009D90013853012852F11852E1085311785301614
:1009E900852F15852E1485311B85301A852F19857C
:1009F9002E18C2A4AF31AE30AD2FAC2E2285171BF5
:100A090085161A85151985141885131785121685E3
:100A19001115851014850F13850E12850D11850C7E
:100A290010850B0F850A0E85090D85080C85310B7C
:100A390085300A852F09852E08D2A4E50B250FFFDD
:100A4900E50A350EFEE509350DFDE508350CFCEF27
:100A59002513FFEE3512FEED3511FDEC3510FCEFD7
:100A69002517FFEE3516FEED3515FDEC3514FCEFB7
:100A7900251BFFEE351AFEED3519FDEC3518FCE4A2
:090A89007B05FAF9F8120553226D
:100D9400758951758C3C758AB0E4F58DF58BD2AFAD
:090DA400D2A9D2ABD28CD28E226E
:100C5900C28CC28EC2A6C296C297E4FF1200037B61
:100C6900FF7A0A7992120D367F401200037BFF7AD0
:0D0C79000A79A3120D36D2A6D28CD28E229B
:100C8600C28CC28EC2A6C296D297E4FF1200037B24
:100C9600FF7A0A79B4120D367F401200037BFF7A81
:0D0CA6000A79C5120D36D2A6D28CD28E224C
:100CB300C28CC28EC2A6D296C297E4FF1200037BF7
:100CC300FF7A0A79D6120D367F401200037BFF7A32
:0D0CD3000A79E7120D36D2A6D28CD28E22FD
:100CE000C28CC28EC2A6D296D297E4FF1200037BBA
:100CF000FF7A0A79F8120D367F401200037BFF7AE3
:0D0D00000B7909120D36D2A6D28CD28E22AC
:1007B500D2A4D2A5D2A6D2A7120DAD7F647E001217
:1007C5000D56120D94120C59120D0DE51C65216084
:1007D5003185211CE51CFD7C007005120C59802219
:1007E500ED64014C7005120C868017E51CFD7C003C
:1007F50064027005120CB38009ED64034C7003129A
:100805000CE0208EC3C2A7AF8BEF2520FFE4351F78
:10081500FEE4351EFDE4351DFCA804A905AA06ABBA
:1008250007AF8DEFFEE4FCFD2BF52DEA3EF52CED33
:1008350039F52BEC38F52AE51C703AAF2DAE2CAD09
:100845002BAC2A120335A804A905AA06AB077F0C11
:100855007E967D097C4D12021FE4FBFA797A78C4F5
:10086500120025E4FBFAF9784012021FE4FBFA793D
:10087500FA78C3802BE51C6401702AAF2DAE2CAD30
:100885002BAC2A120335A804A905AA06AB077F00DD
:100895007EE67D2A7C4912021FE4FBFA79F078C1D5
:1008A5001200258061E51C64027073AF2DAE2CAD7E
:1008B5002BAC2A120335A804A905AA06AB077F00AD
:1008C5007E247D747C4912021F7B007A247974781A
:1008D50049120116C004C005C006C007AF2DAE2CD5
:1008E500AD2BAC2AE4120335A804A905AA06AB076B
:1008F500D007D006D005D00412021F7B9A7A9979C9
:10090500D9783F12021F1203738F258E248D238CF5
:10091500221209598F258E248D238C228012E51CE5
:100925006403700C852D25852C24852B23852A228F
:10093500AF25AE24AD23AC22753240120604D2A7F2
:10094500E4F520F51FF51EF51DF58BF58DD28CD23E
:040955008E0207CD3A
:03000B00020BB134
:100BB100C0E0C0F0C083C082C0D075D000C000C00A
:100BC10001C002C003C004C005C006C007758C3C4B
:100BD100758AB0E5292401F529E43528F528E4359D
:100BE10027F527E43526F526E47F14FEFDFCAB2925
:100BF100AA28A927A826C31205F3700CC28CC28E9D
:100C0100F529F528F527F526D007D006D005D0041B
:100C1100D003D002D001D000D0D0D082D083D0F088
:030C2100D0E032EE
:03001B00020D765D
:100D7600C0E0C0D0E42520F520E4351FF51FE51EB0
:0E0D86003401F51EE4351DF51DD0D0D0E0324D
:10001E000203DFE86480F8E933E83360110460F02E
:10002E00ED33EC337009E8FCE9FDEAFEEBFF220448
:10003E0060DED3EB9FEA9EE99DE8C2E78CF0C2F743
:10004E0095F0400CE8CCF8E9CDF9EACEFAEBCFFB0F
:10005E001203AA85D0F05804700320D5B3E80470BB
:10006E00075002B2D50203E992D5EC0460F7E4CC56
:10007E00C0E0C398F8603B94186008400DD0E0FBD8
:10008E000203C1E4FBFAC9FC8028E830E406E4C9A7
:10009E00FBE4CAFCE830E305E4C9CACBFCE854072C
:1000AE006010F8C3E913F9EA13FAEB13FBEC13FC37
:1000BE00D8F130F52FC3E49CFCEF9BFFEE9AFEEDDA
:1000CE0099FDD0E0FBEF4E4D4C701222DB03020384
:1000DE00E6EC2CFCEF33FFEE33FEED33FDED30E7B7
:1000EE00EB0203C1EF2BFFEE3AFEED39FDD0E0FB44
:1000FE0050130BBB00030203E9ED13FDEE13FEEFED
:08010E0013FFEC13FC0203C116
:10011600EC4D6011E8497017ED33EC3304600DE4E3
:10012600FCFFFEFD22E933E8330470F80203DF1218
:1001360003AA58046009E4CC248150062850090219
:1001460003E92840030203E6C0E0EB4A7044B980A5
:1001560006D0E0FB0203D5EF4E701CBD8008EBFF16
:10016600EAFEE9FD80EBE98DF0A4FEE5F00201FF71
:10017600E9CDF9EAFEEBFFEF89F0A4FCE5F0CE89C4
:10018600F0A42EFFE435F0CD89F0A42DFEE435F081
:100196008067EF4E7005BD80D780C3EF8BF0A4ACAF
:1001A600F0EE8BF0A42CFCE435F0F8EF8AF0A42CEA
:1001B600E5F038FCE433CB8DF0A42CFCE5F03BF8FD
:1001C600EE8AF0A42CFCE5F038F8E433CF89F0A4ED
:1001D6002CFCE5F038CF3400CE89F0A42FFFE5F0F3
:1001E6003EFEE433C98DF0A42EFEE5F039CD8AF04B
:1001F600A42FFFE5F03EFEE43DFD33D0E0FB5007C3
:100206000BBB000F0203E9EC2CFCEF33FFEE33FED1
:06021600ED33FD0203C1FF
:10021C000203E9EC5D046005E8590470030203DF96
:10022C001203AA580460F6EC4860F2EC7004FDFE70
:10023C00FF22C860DB2481C85009C39860025006B5
:10024C000203E69850CAF582E9294B4A7005AB8245
:10025C000203D575F0007C1A7880C3EF9BEE9AED03
:10026C0099400DC3EF9BFFEE9AFEED99FDE842F02D
:10027C00DC23ACF0D0E0FFD0E0FED0E0FDAB822080
:10028C00E7101BEB60BAEC2CFCEF33FFEE33FEED0A
:10029C0033FD0203C1E803F830E705C0F075F00048
:1002AC00EF2FFFEE33FEED33FD40B830E7C280AAEE
:1002BC0074F8CC6480CCC86480C8F58204604FC3E9
:1002CC00EB9FF5F0EA9E42F0E99D42F0E89C45F088
:1002DC00603C501DE5825FFFE582D313CB5BCBF412
:1002EC002B5582FB50280ABA002409B9002008803B
:1002FC001DE5825BFBE582D313CF5FCFF4C3132FD5
:10030C005582FF50090EBE00050DBD00010CC3EB5C
:10031C009FF5F0EA9E42F0E99D42F0E89C45F060C2
:09032C0007CC4820E701B3EC22E4
:1003350075F020800E75F010800575F0087D007E43
:10034500007F003392D530D5031205E5EC3340101C
:10035500EF33FFEE33FEED33FDEC33FCD5F0ED224C
:0E036500E5F0247EA2D513CC92E7CDCEFF2288
:10037300EDD2E7CD33EC3392D524814006E4FFFE82
:10038300FDFC22FCE4CFCECDCC24E0501174FF80E1
:10039300EDC3CC13CCCD13CDCE13CECF13CF04707E
:0703A300F030D5DE0205E594
:1003AA00E9D2E7C933E833F892D5EDD2E7CD33EC99
:0703BA0033FC5002B2D52212
:1003C100EC30E7100FBF000C0EBE00080DBD00049D
:1003D1000BEB6014A2D5EB13FCED92E7FD2274FF49
:1003E100FCFDFEFF22E480F8A2D574FF13FC7D80A2
:0303F100E480EFB6
:03000000020B25CB
:0C0B2500787FE4F6D8FD758140020B6C6F
:1003F400E709F608DFFA8046E709F208DFFA803EEB
:1004040088828C83E709F0A3DFFA8032E309F608D7
:10041400DFFA8078E309F208DFFA807088828C833F
:10042400E309F0A3DFFA806489828A83E0A3F608F3
:10043400DFFA805889828A83E0A3F208DFFA804CCD
:1004440080D280FA80C680D4806980F280338010A4
:1004540080A680EA809A80A880DA80E280CA80330D
:1004640089828A83ECFAE493A3C8C582C8CCC58385
:10047400CCF0A3C8C582C8CCC583CCDFE9DEE78055
:100484000D89828A83E493A3F608DFF9ECFAA9F0D4
:10049400EDFB2289828A83ECFAE0A3C8C582C8CC2A
:1004A400C583CCF0A3C8C582C8CCC583CCDFEADE43
:1004B400E880DB89828A83E493A3F208DFF980CCA5
:1004C40088F0EF60010E4E60C388F0ED2402B4049E
:1004D4000050B9F582EB2402B4040050AF23234545
:0604E40082239004447322
:1004EA00BB010CE58229F582E5833AF583E02250C7
:1004FA0006E92582F8E622BBFE06E92582F8E22211
:0D050A00E58229F582E5833AF583E493222A
:1005170075F008758200EF2FFFEE33FECD33CDCC9B
:1005270033CCC58233C5829BED9AEC99E58298401E
:100537000CF582EE9BFEED9AFDEC99FC0FD5F0D6FB
:10054700E4CEFBE4CDFAE4CCF9A88222B800C1B925
:100557000059BA002DEC8BF084CFCECDFCE5F0CB63
:10056700F97818EF2FFFEE33FEED33FDEC33FCEB9C
:1005770033FB10D703994004EB99FB0FD8E5E4F957
:10058700FA227818EF2FFFEE33FEED33FDEC33FC44
:10059700C933C910D7059BE99A4007EC9BFCE99A38
:1005A700F90FD8E0E4C9FAE4CCFB2275F010EF2F7D
:1005B700FFEE33FEED33FDCC33CCC833C810D7077D
:1005C7009BEC9AE899400AED9BFDEC9AFCE899F8B8
:0E05D7000FD5F0DAE4CDFBE4CCFAE4C8F9224B
:0E05E500C3E49FFFE49EFEE49DFDE49CFC2227
:1005F300EB9FF5F0EA9E42F0E99D42F0E89C45F05E
:0106030022D4
:0C000E00EE30E707C3E49FFFE49EFE22F3
:100B31000207B5E493A3F8E493A34003F68001F21E
:100B410008DFF48029E493A3F85407240CC8C333C5
:100B5100C4540F4420C8834004F456800146F6DF94
:100B6100E4800B0102040810204080900C24E47EF4
:100B7100019360BCA3FF543F30E509541FFEE49389
:100B8100A360010ECF54C025E060A840B8E493A350
:100B9100FAE493A3F8E493A3C8C582C8CAC583CA7B
:100BA100F0A3C8C582C8CAC583CADFE9DEE780BE33
:010C5800009B
:00000001FF
